{
    "contractName": "LotteryV2",
    "abi": [
        {
            "inputs": [
                {
                    "internalType": "uint64",
                    "name": "subscriptionId",
                    "type": "uint64"
                }
            ],
            "stateMutability": "nonpayable",
            "type": "constructor"
        },
        {
            "inputs": [
                {
                    "internalType": "address",
                    "name": "have",
                    "type": "address"
                },
                {
                    "internalType": "address",
                    "name": "want",
                    "type": "address"
                }
            ],
            "name": "OnlyCoordinatorCanFulfill",
            "type": "error"
        },
        {
            "inputs": [],
            "name": "lastRequestId",
            "outputs": [
                {
                    "internalType": "uint256",
                    "name": "",
                    "type": "uint256"
                }
            ],
            "stateMutability": "view",
            "type": "function"
        },
        {
            "inputs": [
                {
                    "internalType": "uint256",
                    "name": "",
                    "type": "uint256"
                }
            ],
            "name": "lotteryHistory",
            "outputs": [
                {
                    "internalType": "address",
                    "name": "",
                    "type": "address"
                }
            ],
            "stateMutability": "view",
            "type": "function"
        },
        {
            "inputs": [],
            "name": "lotteryId",
            "outputs": [
                {
                    "internalType": "uint256",
                    "name": "",
                    "type": "uint256"
                }
            ],
            "stateMutability": "view",
            "type": "function"
        },
        {
            "inputs": [],
            "name": "owner",
            "outputs": [
                {
                    "internalType": "address",
                    "name": "",
                    "type": "address"
                }
            ],
            "stateMutability": "view",
            "type": "function"
        },
        {
            "inputs": [
                {
                    "internalType": "uint256",
                    "name": "",
                    "type": "uint256"
                }
            ],
            "name": "players",
            "outputs": [
                {
                    "internalType": "address payable",
                    "name": "",
                    "type": "address"
                }
            ],
            "stateMutability": "view",
            "type": "function"
        },
        {
            "inputs": [
                {
                    "internalType": "uint256",
                    "name": "requestId",
                    "type": "uint256"
                },
                {
                    "internalType": "uint256[]",
                    "name": "randomWords",
                    "type": "uint256[]"
                }
            ],
            "name": "rawFulfillRandomWords",
            "outputs": [],
            "stateMutability": "nonpayable",
            "type": "function"
        },
        {
            "inputs": [
                {
                    "internalType": "uint256",
                    "name": "",
                    "type": "uint256"
                }
            ],
            "name": "requestIds",
            "outputs": [
                {
                    "internalType": "uint256",
                    "name": "",
                    "type": "uint256"
                }
            ],
            "stateMutability": "view",
            "type": "function"
        },
        {
            "inputs": [
                {
                    "internalType": "uint256",
                    "name": "",
                    "type": "uint256"
                }
            ],
            "name": "s_randomWords",
            "outputs": [
                {
                    "internalType": "uint256",
                    "name": "",
                    "type": "uint256"
                }
            ],
            "stateMutability": "view",
            "type": "function"
        },
        {
            "inputs": [],
            "name": "s_requestId",
            "outputs": [
                {
                    "internalType": "uint256",
                    "name": "",
                    "type": "uint256"
                }
            ],
            "stateMutability": "view",
            "type": "function"
        },
        {
            "inputs": [],
            "name": "enter",
            "outputs": [],
            "stateMutability": "payable",
            "type": "function"
        },
        {
            "inputs": [],
            "name": "getBalance",
            "outputs": [
                {
                    "internalType": "uint256",
                    "name": "",
                    "type": "uint256"
                }
            ],
            "stateMutability": "view",
            "type": "function"
        },
        {
            "inputs": [],
            "name": "getPlayers",
            "outputs": [
                {
                    "internalType": "address payable[]",
                    "name": "",
                    "type": "address[]"
                }
            ],
            "stateMutability": "view",
            "type": "function"
        },
        {
            "inputs": [],
            "name": "pickWinner",
            "outputs": [],
            "stateMutability": "nonpayable",
            "type": "function"
        }
    ],
    "bytecode": "0x60a06040527f79d3d8832d904592c0bf9818b621522c988bb8b0c05cdc3b15aea1b6e8db0c1560001b600355620f4240600460006101000a81548163ffffffff021916908363ffffffff16021790555060036004806101000a81548161ffff021916908361ffff1602179055506001600460066101000a81548163ffffffff021916908363ffffffff160217905550732ca8e0c643bde4c2e08ab1fa0da3401adad7734d600b60006101000a81548173ffffffffffffffffffffffffffffffffffffffff021916908373ffffffffffffffffffffffffffffffffffffffff160217905550348015620000f057600080fd5b50604051620015b2380380620015b283398181016040528101906200011691906200028b565b600b60009054906101000a900473ffffffffffffffffffffffffffffffffffffffff168073ffffffffffffffffffffffffffffffffffffffff1660808173ffffffffffffffffffffffffffffffffffffffff16815250505033600760006101000a81548173ffffffffffffffffffffffffffffffffffffffff021916908373ffffffffffffffffffffffffffffffffffffffff160217905550600b60009054906101000a900473ffffffffffffffffffffffffffffffffffffffff166000806101000a81548173ffffffffffffffffffffffffffffffffffffffff021916908373ffffffffffffffffffffffffffffffffffffffff16021790555080600060146101000a81548167ffffffffffffffff021916908367ffffffffffffffff16021790555050620002bd565b600080fd5b600067ffffffffffffffff82169050919050565b620002658162000246565b81146200027157600080fd5b50565b60008151905062000285816200025a565b92915050565b600060208284031215620002a457620002a362000241565b5b6000620002b48482850162000274565b91505092915050565b6080516112d2620002e060003960008181610311015261036501526112d26000f3fe6080604052600436106100c25760003560e01c80638da5cb5b1161007f578063e97dcb6211610059578063e97dcb6214610258578063f6eaffc814610262578063f71d96cb1461029f578063fc2a88c3146102dc576100c2565b80638da5cb5b146101d7578063e580f47b14610202578063e89e106a1461022d576100c2565b806312065fe0146100c75780631fe543e3146100f25780635d495aea1461011b5780636d6fe230146101325780638796ba8c1461016f5780638b5b9ccc146101ac575b600080fd5b3480156100d357600080fd5b506100dc610307565b6040516100e99190610aea565b60405180910390f35b3480156100fe57600080fd5b5061011960048036038101906101149190610c9e565b61030f565b005b34801561012757600080fd5b506101306103cf565b005b34801561013e57600080fd5b5061015960048036038101906101549190610cfa565b610469565b6040516101669190610d68565b60405180910390f35b34801561017b57600080fd5b5061019660048036038101906101919190610cfa565b61049c565b6040516101a39190610aea565b60405180910390f35b3480156101b857600080fd5b506101c16104c0565b6040516101ce9190610e53565b60405180910390f35b3480156101e357600080fd5b506101ec61054e565b6040516101f99190610d68565b60405180910390f35b34801561020e57600080fd5b50610217610574565b6040516102249190610aea565b60405180910390f35b34801561023957600080fd5b5061024261057a565b60405161024f9190610aea565b60405180910390f35b610260610580565b005b34801561026e57600080fd5b5061028960048036038101906102849190610cfa565b61062f565b6040516102969190610aea565b60405180910390f35b3480156102ab57600080fd5b506102c660048036038101906102c19190610cfa565b610653565b6040516102d39190610e84565b60405180910390f35b3480156102e857600080fd5b506102f1610692565b6040516102fe9190610aea565b60405180910390f35b600047905090565b7f000000000000000000000000000000000000000000000000000000000000000073ffffffffffffffffffffffffffffffffffffffff163373ffffffffffffffffffffffffffffffffffffffff16146103c157337f00000000000000000000000000000000000000000000000000000000000000006040517f1cf993f40000000000000000000000000000000000000000000000000000000081526004016103b8929190610e9f565b60405180910390fd5b6103cb8282610698565b5050565b600760009054906101000a900473ffffffffffffffffffffffffffffffffffffffff1673ffffffffffffffffffffffffffffffffffffffff163373ffffffffffffffffffffffffffffffffffffffff161461045f576040517f08c379a000000000000000000000000000000000000000000000000000000000815260040161045690610f25565b60405180910390fd5b6104676106bb565b565b600a6020528060005260406000206000915054906101000a900473ffffffffffffffffffffffffffffffffffffffff1681565b600181815481106104ac57600080fd5b906000526020600020016000915090505481565b6060600880548060200260200160405190810160405280929190818152602001828054801561054457602002820191906000526020600020905b8160009054906101000a900473ffffffffffffffffffffffffffffffffffffffff1673ffffffffffffffffffffffffffffffffffffffff16815260200190600101908083116104fa575b5050505050905090565b600760009054906101000a900473ffffffffffffffffffffffffffffffffffffffff1681565b60095481565b60065481565b662386f26fc100003410156105ca576040517f08c379a00000000000000000000000000000000000000000000000000000000081526004016105c190610fb7565b60405180910390fd5b6008339080600181540180825580915050600190039060005260206000200160009091909190916101000a81548173ffffffffffffffffffffffffffffffffffffffff021916908373ffffffffffffffffffffffffffffffffffffffff160217905550565b6005818154811061063f57600080fd5b906000526020600020016000915090505481565b6008818154811061066357600080fd5b906000526020600020016000915054906101000a900473ffffffffffffffffffffffffffffffffffffffff1681565b60025481565b80600590805190602001906106ae9291906109dd565b506106b76107b1565b5050565b60008054906101000a900473ffffffffffffffffffffffffffffffffffffffff1673ffffffffffffffffffffffffffffffffffffffff16635d3b1d30600354600060149054906101000a900467ffffffffffffffff1660048054906101000a900461ffff16600460009054906101000a900463ffffffff16600460069054906101000a900463ffffffff166040518663ffffffff1660e01b815260040161076695949392919061104f565b6020604051808303816000875af1158015610785573d6000803e3d6000fd5b505050506040513d601f19601f820116820180604052508101906107a991906110b7565b600681905550565b600060088054905060056000815481106107ce576107cd6110e4565b5b90600052602060002001546107e39190611142565b9050600881815481106107f9576107f86110e4565b5b9060005260206000200160009054906101000a900473ffffffffffffffffffffffffffffffffffffffff16600a6000600954815260200190815260200160002060006101000a81548173ffffffffffffffffffffffffffffffffffffffff021916908373ffffffffffffffffffffffffffffffffffffffff1602179055506009600081548092919061088a906111a2565b91905055506000600882815481106108a5576108a46110e4565b5b9060005260206000200160009054906101000a900473ffffffffffffffffffffffffffffffffffffffff1673ffffffffffffffffffffffffffffffffffffffff16476040516108f39061121b565b60006040518083038185875af1925050503d8060008114610930576040519150601f19603f3d011682016040523d82523d6000602084013e610935565b606091505b5050905080610979576040517f08c379a00000000000000000000000000000000000000000000000000000000081526004016109709061127c565b60405180910390fd5b600067ffffffffffffffff81111561099457610993610b5b565b5b6040519080825280602002602001820160405280156109c25781602001602082028036833780820191505090505b50600890805190602001906109d8929190610a2a565b505050565b828054828255906000526020600020908101928215610a19579160200282015b82811115610a185782518255916020019190600101906109fd565b5b509050610a269190610ab4565b5090565b828054828255906000526020600020908101928215610aa3579160200282015b82811115610aa25782518260006101000a81548173ffffffffffffffffffffffffffffffffffffffff021916908373ffffffffffffffffffffffffffffffffffffffff16021790555091602001919060010190610a4a565b5b509050610ab09190610ab4565b5090565b5b80821115610acd576000816000905550600101610ab5565b5090565b6000819050919050565b610ae481610ad1565b82525050565b6000602082019050610aff6000830184610adb565b92915050565b6000604051905090565b600080fd5b600080fd5b610b2281610ad1565b8114610b2d57600080fd5b50565b600081359050610b3f81610b19565b92915050565b600080fd5b6000601f19601f8301169050919050565b7f4e487b7100000000000000000000000000000000000000000000000000000000600052604160045260246000fd5b610b9382610b4a565b810181811067ffffffffffffffff82111715610bb257610bb1610b5b565b5b80604052505050565b6000610bc5610b05565b9050610bd18282610b8a565b919050565b600067ffffffffffffffff821115610bf157610bf0610b5b565b5b602082029050602081019050919050565b600080fd5b6000610c1a610c1584610bd6565b610bbb565b90508083825260208201905060208402830185811115610c3d57610c3c610c02565b5b835b81811015610c665780610c528882610b30565b845260208401935050602081019050610c3f565b5050509392505050565b600082601f830112610c8557610c84610b45565b5b8135610c95848260208601610c07565b91505092915050565b60008060408385031215610cb557610cb4610b0f565b5b6000610cc385828601610b30565b925050602083013567ffffffffffffffff811115610ce457610ce3610b14565b5b610cf085828601610c70565b9150509250929050565b600060208284031215610d1057610d0f610b0f565b5b6000610d1e84828501610b30565b91505092915050565b600073ffffffffffffffffffffffffffffffffffffffff82169050919050565b6000610d5282610d27565b9050919050565b610d6281610d47565b82525050565b6000602082019050610d7d6000830184610d59565b92915050565b600081519050919050565b600082825260208201905092915050565b6000819050602082019050919050565b6000610dba82610d27565b9050919050565b610dca81610daf565b82525050565b6000610ddc8383610dc1565b60208301905092915050565b6000602082019050919050565b6000610e0082610d83565b610e0a8185610d8e565b9350610e1583610d9f565b8060005b83811015610e46578151610e2d8882610dd0565b9750610e3883610de8565b925050600181019050610e19565b5085935050505092915050565b60006020820190508181036000830152610e6d8184610df5565b905092915050565b610e7e81610daf565b82525050565b6000602082019050610e996000830184610e75565b92915050565b6000604082019050610eb46000830185610d59565b610ec16020830184610d59565b9392505050565b600082825260208201905092915050565b7f796f75277265206e6f7420746865206f776e6572000000000000000000000000600082015250565b6000610f0f601483610ec8565b9150610f1a82610ed9565b602082019050919050565b60006020820190508181036000830152610f3e81610f02565b9050919050565b7f6d73672e76616c75652073686f756c642062652067726561746572207468616e60008201527f206f7220657175616c20746f20302e3031206574686572000000000000000000602082015250565b6000610fa1603783610ec8565b9150610fac82610f45565b604082019050919050565b60006020820190508181036000830152610fd081610f94565b9050919050565b6000819050919050565b610fea81610fd7565b82525050565b600067ffffffffffffffff82169050919050565b61100d81610ff0565b82525050565b600061ffff82169050919050565b61102a81611013565b82525050565b600063ffffffff82169050919050565b61104981611030565b82525050565b600060a0820190506110646000830188610fe1565b6110716020830187611004565b61107e6040830186611021565b61108b6060830185611040565b6110986080830184611040565b9695505050505050565b6000815190506110b181610b19565b92915050565b6000602082840312156110cd576110cc610b0f565b5b60006110db848285016110a2565b91505092915050565b7f4e487b7100000000000000000000000000000000000000000000000000000000600052603260045260246000fd5b7f4e487b7100000000000000000000000000000000000000000000000000000000600052601260045260246000fd5b600061114d82610ad1565b915061115883610ad1565b92508261116857611167611113565b5b828206905092915050565b7f4e487b7100000000000000000000000000000000000000000000000000000000600052601160045260246000fd5b60006111ad82610ad1565b91507fffffffffffffffffffffffffffffffffffffffffffffffffffffffffffffffff82036111df576111de611173565b5b600182019050919050565b600081905092915050565b50565b60006112056000836111ea565b9150611210826111f5565b600082019050919050565b6000611226826111f8565b9150819050919050565b7f4661696c656420746f2073656e64204554480000000000000000000000000000600082015250565b6000611266601283610ec8565b915061127182611230565b602082019050919050565b6000602082019050818103600083015261129581611259565b905091905056fea2646970667358221220816959b067ea598eb2594a6674e50070480bf44754e0f5b3435f898a5ef8601664736f6c634300080f0033",
    "immutableReferences": {
        "10": [
            {
                "length": 32,
                "start": 785
            },
            {
                "length": 32,
                "start": 869
            }
        ]
    },
    "source": "// SPDX-License-Identifier: MIT\npragma solidity ^0.8.15;\nimport \"@chainlink/contracts/src/v0.8/interfaces/VRFCoordinatorV2Interface.sol\";\nimport \"@chainlink/contracts/src/v0.8/VRFConsumerBaseV2.sol\";\n\ncontract LotteryV2 is VRFConsumerBaseV2 {\n    VRFCoordinatorV2Interface COORDINATOR;\n\n    // Your subscription ID.\n    uint64 s_subscriptionId;\n\n    // past requests Id.\n    uint256[] public requestIds;\n    uint256 public lastRequestId;\n\n    bytes32 keyHash =\n        0x79d3d8832d904592c0bf9818b621522c988bb8b0c05cdc3b15aea1b6e8db0c15;\n\n    // 10 -> 100 \n    uint32 callbackGasLimit = 1000000;\n\n    // The default is 3, but you can set this higher.\n    uint16 requestConfirmations = 3;\n\n    //   1  -> 1 \n    uint32 numWords = 1;\n\n    uint256[] public s_randomWords;\n    uint256 public s_requestId;\n\n    // \n    // address s_owner;\n\n    address public owner;\n    address payable[] public players;\n    uint256 public lotteryId;\n    mapping(uint256 => address) public lotteryHistory;\n    address vrfCoordinator = 0x2Ca8E0C643bDe4C2E08ab1fA0da3401AdAD7734D;\n\n    // constructor \n    constructor(uint64 subscriptionId) VRFConsumerBaseV2(vrfCoordinator) {\n        owner = msg.sender;\n        COORDINATOR = VRFCoordinatorV2Interface(vrfCoordinator);\n        s_subscriptionId = subscriptionId;\n    }\n\n    function enter() public payable {\n        require(\n            msg.value >= .01 ether,\n            \"msg.value should be greater than or equal to 0.01 ether\"\n        );\n        players.push(payable(msg.sender));\n    }\n\n    function getBalance() public view returns (uint256) {\n        return address(this).balance;\n    }\n\n    function getPlayers() public view returns (address payable[] memory) {\n        return players;\n    }\n\n    // function getRandomNumber() public view returns (uint256) {\n    //     return uint256(keccak256(abi.encodePacked(owner, block.timestamp)));\n    // }\n\n    // function getRandomNumberV2() public view returns (uint256) {\n    //     return\n    //         uint256(\n    //             keccak256(\n    //                 abi.encodePacked(block.difficulty, block.timestamp, players)\n    //             )\n    //         );\n    // }\n\n    // function getRandomNumberV3() public view returns (uint256) {\n    //     return getRandomNumberV2() % players.length;\n    // }\n\n    // assumes the subscription is funcded sufficiently\n    function _requestRandomWords() internal {\n        // will revert if subscription is not set and funded\n        s_requestId = COORDINATOR.requestRandomWords(\n            keyHash,\n            s_subscriptionId,\n            requestConfirmations,\n            callbackGasLimit,\n            numWords\n        );\n    }\n\n    function fulfillRandomWords(\n        uint256,\n        uint256[] memory randomWords\n    ) internal override {\n        s_randomWords = randomWords;\n        _prizeWinner();\n    }\n\n    function pickWinner() public onlyOnwer {\n        _requestRandomWords();\n    }\n\n    function _prizeWinner() internal {\n        // uint256 index = getRandomNumber() % players.length;\n        // uint256 index = getRandomNumberV2() % players.length;\n        // uint256 index = getRandomNumberV3() % players.length;\n        uint256 index = s_randomWords[0] % players.length;\n\n        lotteryHistory[lotteryId] = players[index];\n        lotteryId++;\n\n        (bool success, ) = players[index].call{value: address(this).balance}(\n            \"\"\n        );\n        require(success, \"Failed to send ETH\");\n\n        players = new address payable[](0);\n    }\n\n    modifier onlyOnwer() {\n        require(msg.sender == owner, \"you're not the owner\");\n        _;\n    }\n}\n",
    "sourcePath": "/Users/calvin/Documents/skku/dev/Blockchain/FastCampus/Part5/GamblingDApp/LotteryV2-ChainLink/contracts/LotteryV2.sol",
    "compiler": {
        "name": "solc",
        "version": "0.8.15+commit.e14f2714.Emscripten.clang"
    },
    "schemaVersion": "3.4.11",
    "updatedAt": "2023-02-22T09:56:08.121Z",
    "devdoc": {
        "kind": "dev",
        "methods": {},
        "version": 1
    },
    "userdoc": {
        "kind": "user",
        "methods": {},
        "version": 1
    }
}