{
  "contractName": "CommitRevealLottery",
  "abi": [
    {
      "inputs": [],
      "stateMutability": "nonpayable",
      "type": "constructor"
    },
    {
      "inputs": [],
      "name": "DURATION",
      "outputs": [
        {
          "internalType": "uint256",
          "name": "",
          "type": "uint256"
        }
      ],
      "stateMutability": "view",
      "type": "function",
      "constant": true
    },
    {
      "inputs": [],
      "name": "commitCloses",
      "outputs": [
        {
          "internalType": "uint256",
          "name": "",
          "type": "uint256"
        }
      ],
      "stateMutability": "view",
      "type": "function",
      "constant": true
    },
    {
      "inputs": [
        {
          "internalType": "address",
          "name": "",
          "type": "address"
        }
      ],
      "name": "commitments",
      "outputs": [
        {
          "internalType": "bytes32",
          "name": "",
          "type": "bytes32"
        }
      ],
      "stateMutability": "view",
      "type": "function",
      "constant": true
    },
    {
      "inputs": [
        {
          "internalType": "uint256",
          "name": "",
          "type": "uint256"
        }
      ],
      "name": "lotteryHistory",
      "outputs": [
        {
          "internalType": "address",
          "name": "",
          "type": "address"
        }
      ],
      "stateMutability": "view",
      "type": "function",
      "constant": true
    },
    {
      "inputs": [],
      "name": "lotteryId",
      "outputs": [
        {
          "internalType": "uint256",
          "name": "",
          "type": "uint256"
        }
      ],
      "stateMutability": "view",
      "type": "function",
      "constant": true
    },
    {
      "inputs": [
        {
          "internalType": "uint256",
          "name": "",
          "type": "uint256"
        }
      ],
      "name": "players",
      "outputs": [
        {
          "internalType": "address",
          "name": "",
          "type": "address"
        }
      ],
      "stateMutability": "view",
      "type": "function",
      "constant": true
    },
    {
      "inputs": [],
      "name": "revealCloses",
      "outputs": [
        {
          "internalType": "uint256",
          "name": "",
          "type": "uint256"
        }
      ],
      "stateMutability": "view",
      "type": "function",
      "constant": true
    },
    {
      "inputs": [],
      "name": "winner",
      "outputs": [
        {
          "internalType": "address",
          "name": "",
          "type": "address"
        }
      ],
      "stateMutability": "view",
      "type": "function",
      "constant": true
    },
    {
      "inputs": [
        {
          "internalType": "bytes32",
          "name": "commitment",
          "type": "bytes32"
        }
      ],
      "name": "enter",
      "outputs": [],
      "stateMutability": "payable",
      "type": "function",
      "payable": true
    },
    {
      "inputs": [
        {
          "internalType": "uint256",
          "name": "secret",
          "type": "uint256"
        }
      ],
      "name": "createCommitment",
      "outputs": [
        {
          "internalType": "bytes32",
          "name": "",
          "type": "bytes32"
        }
      ],
      "stateMutability": "view",
      "type": "function",
      "constant": true
    },
    {
      "inputs": [
        {
          "internalType": "uint256",
          "name": "secret",
          "type": "uint256"
        }
      ],
      "name": "reveal",
      "outputs": [],
      "stateMutability": "nonpayable",
      "type": "function"
    },
    {
      "inputs": [],
      "name": "pickWinner",
      "outputs": [],
      "stateMutability": "nonpayable",
      "type": "function"
    },
    {
      "inputs": [],
      "name": "withdrawPrize",
      "outputs": [],
      "stateMutability": "nonpayable",
      "type": "function"
    }
  ],
  "bytecode": "0x60806040523480156200001157600080fd5b506004436200002191906200007d565b60008190555060046000546200003891906200007d565b600181905550620000b8565b6000819050919050565b7f4e487b7100000000000000000000000000000000000000000000000000000000600052601160045260246000fd5b60006200008a8262000044565b9150620000978362000044565b9250828201905080821115620000b257620000b16200004e565b5b92915050565b6113b980620000c86000396000f3fe6080604052600436106100c25760003560e01c8063bcef097e1161007f578063e580f47b11610059578063e580f47b14610223578063e8fcf7231461024e578063eb88d6881461028b578063f71d96cb146102c8576100c2565b8063bcef097e146101a4578063c2ca0ac5146101cf578063dfbf53ae146101f8576100c2565b80631be05289146100c75780634373fde5146100f257806348d37a581461011d578063568ab21e146101345780635d495aea146101505780636d6fe23014610167575b600080fd5b3480156100d357600080fd5b506100dc610305565b6040516100e99190610b17565b60405180910390f35b3480156100fe57600080fd5b5061010761030a565b6040516101149190610b17565b60405180910390f35b34801561012957600080fd5b50610132610310565b005b61014e60048036038101906101499190610b6d565b610555565b005b34801561015c57600080fd5b5061016561062a565b005b34801561017357600080fd5b5061018e60048036038101906101899190610bc6565b610823565b60405161019b9190610c34565b60405180910390f35b3480156101b057600080fd5b506101b9610856565b6040516101c69190610b17565b60405180910390f35b3480156101db57600080fd5b506101f660048036038101906101f19190610bc6565b61085c565b005b34801561020457600080fd5b5061020d610a0b565b60405161021a9190610c34565b60405180910390f35b34801561022f57600080fd5b50610238610a31565b6040516102459190610b17565b60405180910390f35b34801561025a57600080fd5b5061027560048036038101906102709190610c7b565b610a37565b6040516102829190610cb7565b60405180910390f35b34801561029757600080fd5b506102b260048036038101906102ad9190610bc6565b610a4f565b6040516102bf9190610cb7565b60405180910390f35b3480156102d457600080fd5b506102ef60048036038101906102ea9190610bc6565b610a81565b6040516102fc9190610c34565b60405180910390f35b600481565b60015481565b600460009054906101000a900473ffffffffffffffffffffffffffffffffffffffff1673ffffffffffffffffffffffffffffffffffffffff163373ffffffffffffffffffffffffffffffffffffffff16146103a0576040517f08c379a000000000000000000000000000000000000000000000000000000000815260040161039790610d2f565b60405180910390fd5b600460006101000a81549073ffffffffffffffffffffffffffffffffffffffff021916905560005b6003805490508110156104695760066000600383815481106103ed576103ec610d4f565b5b9060005260206000200160009054906101000a900473ffffffffffffffffffffffffffffffffffffffff1673ffffffffffffffffffffffffffffffffffffffff1673ffffffffffffffffffffffffffffffffffffffff16815260200190815260200160002060009055808061046190610dad565b9150506103c8565b50600360006104789190610ac0565b60056000905560044361048b9190610df5565b60008190555060046000546104a09190610df5565b60018190555060003373ffffffffffffffffffffffffffffffffffffffff16476040516104cc90610e5a565b60006040518083038185875af1925050503d8060008114610509576040519150601f19603f3d011682016040523d82523d6000602084013e61050e565b606091505b5050905080610552576040517f08c379a000000000000000000000000000000000000000000000000000000000815260040161054990610ebb565b60405180910390fd5b50565b662386f26fc1000034101561059f576040517f08c379a000000000000000000000000000000000000000000000000000000000815260040161059690610f4d565b60405180910390fd5b60005443106105e3576040517f08c379a00000000000000000000000000000000000000000000000000000000081526004016105da90610fb9565b60405180910390fd5b80600660003373ffffffffffffffffffffffffffffffffffffffff1673ffffffffffffffffffffffffffffffffffffffff1681526020019081526020016000208190555050565b60015443101561066f576040517f08c379a000000000000000000000000000000000000000000000000000000000815260040161066690611025565b60405180910390fd5b600073ffffffffffffffffffffffffffffffffffffffff16600460009054906101000a900473ffffffffffffffffffffffffffffffffffffffff1673ffffffffffffffffffffffffffffffffffffffff1614610700576040517f08c379a00000000000000000000000000000000000000000000000000000000081526004016106f790611091565b60405180910390fd5b6003808054905060055460001c61071791906110e0565b8154811061072857610727610d4f565b5b9060005260206000200160009054906101000a900473ffffffffffffffffffffffffffffffffffffffff16600460006101000a81548173ffffffffffffffffffffffffffffffffffffffff021916908373ffffffffffffffffffffffffffffffffffffffff160217905550600460009054906101000a900473ffffffffffffffffffffffffffffffffffffffff1660076000600254815260200190815260200160002060006101000a81548173ffffffffffffffffffffffffffffffffffffffff021916908373ffffffffffffffffffffffffffffffffffffffff1602179055506002600081548092919061081c90610dad565b9190505550565b60076020528060005260406000206000915054906101000a900473ffffffffffffffffffffffffffffffffffffffff1681565b60005481565b6000544310156108a1576040517f08c379a000000000000000000000000000000000000000000000000000000000815260040161089890611183565b60405180910390fd5b60015443106108e5576040517f08c379a00000000000000000000000000000000000000000000000000000000081526004016108dc90611215565b60405180910390fd5b60006108f082610a4f565b9050600660003373ffffffffffffffffffffffffffffffffffffffff1673ffffffffffffffffffffffffffffffffffffffff168152602001908152602001600020548114610973576040517f08c379a000000000000000000000000000000000000000000000000000000000815260040161096a90611281565b60405180910390fd5b600554826040516020016109889291906112e3565b604051602081830303815290604052805190602001206005819055506003339080600181540180825580915050600190039060005260206000200160009091909190916101000a81548173ffffffffffffffffffffffffffffffffffffffff021916908373ffffffffffffffffffffffffffffffffffffffff1602179055505050565b600460009054906101000a900473ffffffffffffffffffffffffffffffffffffffff1681565b60025481565b60066020528060005260406000206000915090505481565b60003382604051602001610a64929190611357565b604051602081830303815290604052805190602001209050919050565b60038181548110610a9157600080fd5b906000526020600020016000915054906101000a900473ffffffffffffffffffffffffffffffffffffffff1681565b5080546000825590600052602060002090810190610ade9190610ae1565b50565b5b80821115610afa576000816000905550600101610ae2565b5090565b6000819050919050565b610b1181610afe565b82525050565b6000602082019050610b2c6000830184610b08565b92915050565b600080fd5b6000819050919050565b610b4a81610b37565b8114610b5557600080fd5b50565b600081359050610b6781610b41565b92915050565b600060208284031215610b8357610b82610b32565b5b6000610b9184828501610b58565b91505092915050565b610ba381610afe565b8114610bae57600080fd5b50565b600081359050610bc081610b9a565b92915050565b600060208284031215610bdc57610bdb610b32565b5b6000610bea84828501610bb1565b91505092915050565b600073ffffffffffffffffffffffffffffffffffffffff82169050919050565b6000610c1e82610bf3565b9050919050565b610c2e81610c13565b82525050565b6000602082019050610c496000830184610c25565b92915050565b610c5881610c13565b8114610c6357600080fd5b50565b600081359050610c7581610c4f565b92915050565b600060208284031215610c9157610c90610b32565b5b6000610c9f84828501610c66565b91505092915050565b610cb181610b37565b82525050565b6000602082019050610ccc6000830184610ca8565b92915050565b600082825260208201905092915050565b7f796f75277265206e6f74207468652077696e6e65720000000000000000000000600082015250565b6000610d19601583610cd2565b9150610d2482610ce3565b602082019050919050565b60006020820190508181036000830152610d4881610d0c565b9050919050565b7f4e487b7100000000000000000000000000000000000000000000000000000000600052603260045260246000fd5b7f4e487b7100000000000000000000000000000000000000000000000000000000600052601160045260246000fd5b6000610db882610afe565b91507fffffffffffffffffffffffffffffffffffffffffffffffffffffffffffffffff8203610dea57610de9610d7e565b5b600182019050919050565b6000610e0082610afe565b9150610e0b83610afe565b9250828201905080821115610e2357610e22610d7e565b5b92915050565b600081905092915050565b50565b6000610e44600083610e29565b9150610e4f82610e34565b600082019050919050565b6000610e6582610e37565b9150819050919050565b7f4661696c656420746f2073656e6420657468657220746f2077696e6e65720000600082015250565b6000610ea5601e83610cd2565b9150610eb082610e6f565b602082019050919050565b60006020820190508181036000830152610ed481610e98565b9050919050565b7f6d73672e76616c75652073686f756c642062652067726561746572207468616e60008201527f206f7220657175616c20746f20302e3031206574686572000000000000000000602082015250565b6000610f37603783610cd2565b9150610f4282610edb565b604082019050919050565b60006020820190508181036000830152610f6681610f2a565b9050919050565b7f636f6d6d6974206475726174696f6e206973206f766572000000000000000000600082015250565b6000610fa3601783610cd2565b9150610fae82610f6d565b602082019050919050565b60006020820190508181036000830152610fd281610f96565b9050919050565b7f4e6f742079657420746f207069636b2077696e6e657200000000000000000000600082015250565b600061100f601683610cd2565b915061101a82610fd9565b602082019050919050565b6000602082019050818103600083015261103e81611002565b9050919050565b7f77696e6e657220697320616c7265616479207365740000000000000000000000600082015250565b600061107b601583610cd2565b915061108682611045565b602082019050919050565b600060208201905081810360008301526110aa8161106e565b9050919050565b7f4e487b7100000000000000000000000000000000000000000000000000000000600052601260045260246000fd5b60006110eb82610afe565b91506110f683610afe565b925082611106576111056110b1565b5b828206905092915050565b7f636f6d6d6974206475726174696f6e206973206e6f7420636c6f73656420796560008201527f7400000000000000000000000000000000000000000000000000000000000000602082015250565b600061116d602183610cd2565b915061117882611111565b604082019050919050565b6000602082019050818103600083015261119c81611160565b9050919050565b7f72657665616c206475726174696f6e20697320616c726561647920636c6f736560008201527f6400000000000000000000000000000000000000000000000000000000000000602082015250565b60006111ff602183610cd2565b915061120a826111a3565b604082019050919050565b6000602082019050818103600083015261122e816111f2565b9050919050565b7f636f6d6d697420646f6573206e6f74206d617463680000000000000000000000600082015250565b600061126b601583610cd2565b915061127682611235565b602082019050919050565b6000602082019050818103600083015261129a8161125e565b9050919050565b6000819050919050565b6112bc6112b782610b37565b6112a1565b82525050565b6000819050919050565b6112dd6112d882610afe565b6112c2565b82525050565b60006112ef82856112ab565b6020820191506112ff82846112cc565b6020820191508190509392505050565b60008160601b9050919050565b60006113278261130f565b9050919050565b60006113398261131c565b9050919050565b61135161134c82610c13565b61132e565b82525050565b60006113638285611340565b60148201915061137382846112cc565b602082019150819050939250505056fea2646970667358221220893bd63f4c0c95f2c95b79372587b5264e7eddf2b4c8ed077f3719595b03467064736f6c63430008110033",
  "immutableReferences": {},
  "source": "// SPDX-License-Identifier: MIT\npragma solidity ^0.8.15;\n\ncontract CommitRevealLottery {\n    uint256 public commitCloses;\n    uint256 public revealCloses;\n    uint256 public constant DURATION = 4;\n\n    uint256 public lotteryId;\n    address[] public players;\n    address public winner;\n    bytes32 seed;\n    mapping(address => bytes32) public commitments;\n    mapping(uint256 => address) public lotteryHistory;\n\n    constructor() {\n        commitCloses = block.number + DURATION;\n        revealCloses = commitCloses + DURATION;\n    }\n\n    function enter(bytes32 commitment) public payable {\n        require(\n            msg.value >= .01 ether,\n            \"msg.value should be greater than or equal to 0.01 ether\"\n        );\n        require(block.number < commitCloses, \"commit duration is over\");\n\n        commitments[msg.sender] = commitment;\n    }\n\n    function createCommitment(uint256 secret) public view returns (bytes32) {\n        return keccak256(abi.encodePacked(msg.sender, secret));\n    }\n\n    function reveal(uint256 secret) public {\n        require(\n            block.number >= commitCloses,\n            \"commit duration is not closed yet\"\n        );\n        require(\n            block.number < revealCloses,\n            \"reveal duration is already closed\"\n        );\n\n        bytes32 commit = createCommitment(secret);\n        require(commit == commitments[msg.sender], \"commit does not match\");\n\n        seed = keccak256(abi.encodePacked(seed, secret));\n        players.push(msg.sender);\n    }\n\n    function pickWinner() public {\n        require(block.number >= revealCloses, \"Not yet to pick winner\");\n        require(winner == address(0), \"winner is already set\");\n\n        winner = players[uint256(seed) % players.length];\n\n        lotteryHistory[lotteryId] = winner;\n        lotteryId++;\n    }\n\n    function withdrawPrize() public {\n        require(msg.sender == winner, \"you're not the winner\");\n\n        delete winner;\n        for (uint256 i = 0; i < players.length; i++) {\n            delete commitments[players[i]];\n        }\n        delete players;\n        delete seed;\n\n        commitCloses = block.number + DURATION;\n        revealCloses = commitCloses + DURATION;\n\n        (bool success, ) = payable(msg.sender).call{\n            value: address(this).balance\n        }(\"\");\n        require(success, \"Failed to send ether to winner\");\n    }\n}\n",
  "sourcePath": "/Users/calvin/Documents/skku/dev/Blockchain/FastCampus/Part5/GamblingDApp/Lottery-truffle/contracts/CommitRevealLottery.sol",
  "compiler": {
    "name": "solc",
    "version": "0.8.17+commit.8df45f5f.Emscripten.clang"
  },
  "schemaVersion": "3.4.11",
  "updatedAt": "2023-02-09T09:19:30.511Z",
  "networkType": "ethereum",
  "devdoc": {
    "kind": "dev",
    "methods": {},
    "version": 1
  },
  "userdoc": {
    "kind": "user",
    "methods": {},
    "version": 1
  }
}