{
  "contractName": "Lottery",
  "abi": [
    {
      "inputs": [],
      "stateMutability": "nonpayable",
      "type": "constructor"
    },
    {
      "inputs": [
        {
          "internalType": "uint256",
          "name": "",
          "type": "uint256"
        }
      ],
      "name": "lotteryHistory",
      "outputs": [
        {
          "internalType": "address",
          "name": "",
          "type": "address"
        }
      ],
      "stateMutability": "view",
      "type": "function",
      "constant": true
    },
    {
      "inputs": [],
      "name": "lotteryId",
      "outputs": [
        {
          "internalType": "uint256",
          "name": "",
          "type": "uint256"
        }
      ],
      "stateMutability": "view",
      "type": "function",
      "constant": true
    },
    {
      "inputs": [],
      "name": "owner",
      "outputs": [
        {
          "internalType": "address",
          "name": "",
          "type": "address"
        }
      ],
      "stateMutability": "view",
      "type": "function",
      "constant": true
    },
    {
      "inputs": [
        {
          "internalType": "uint256",
          "name": "",
          "type": "uint256"
        }
      ],
      "name": "players",
      "outputs": [
        {
          "internalType": "address payable",
          "name": "",
          "type": "address"
        }
      ],
      "stateMutability": "view",
      "type": "function",
      "constant": true
    },
    {
      "inputs": [],
      "name": "enter",
      "outputs": [],
      "stateMutability": "payable",
      "type": "function",
      "payable": true
    },
    {
      "inputs": [],
      "name": "getBalance",
      "outputs": [
        {
          "internalType": "uint256",
          "name": "",
          "type": "uint256"
        }
      ],
      "stateMutability": "view",
      "type": "function",
      "constant": true
    },
    {
      "inputs": [],
      "name": "getPlayers",
      "outputs": [
        {
          "internalType": "address payable[]",
          "name": "",
          "type": "address[]"
        }
      ],
      "stateMutability": "view",
      "type": "function",
      "constant": true
    },
    {
      "inputs": [],
      "name": "getRandomNumber",
      "outputs": [
        {
          "internalType": "uint256",
          "name": "",
          "type": "uint256"
        }
      ],
      "stateMutability": "view",
      "type": "function",
      "constant": true
    },
    {
      "inputs": [],
      "name": "getRandomNumberV2",
      "outputs": [
        {
          "internalType": "uint256",
          "name": "",
          "type": "uint256"
        }
      ],
      "stateMutability": "view",
      "type": "function",
      "constant": true
    },
    {
      "inputs": [],
      "name": "getRandomNumberV3",
      "outputs": [
        {
          "internalType": "uint256",
          "name": "",
          "type": "uint256"
        }
      ],
      "stateMutability": "view",
      "type": "function",
      "constant": true
    },
    {
      "inputs": [],
      "name": "pickWinner",
      "outputs": [],
      "stateMutability": "nonpayable",
      "type": "function"
    }
  ],
  "bytecode": "0x608060405234801561001057600080fd5b50336000806101000a81548173ffffffffffffffffffffffffffffffffffffffff021916908373ffffffffffffffffffffffffffffffffffffffff160217905550610f5e806100606000396000f3fe60806040526004361061009c5760003560e01c80638b5b9ccc116100645780638b5b9ccc146101765780638da5cb5b146101a1578063dbdff2c1146101cc578063e580f47b146101f7578063e97dcb6214610222578063f71d96cb1461022c5761009c565b806312065fe0146100a157806347b89533146100cc5780635d495aea146100f75780636793aa141461010e5780636d6fe23014610139575b600080fd5b3480156100ad57600080fd5b506100b6610269565b6040516100c39190610855565b60405180910390f35b3480156100d857600080fd5b506100e1610271565b6040516100ee9190610855565b60405180910390f35b34801561010357600080fd5b5061010c610290565b005b34801561011a57600080fd5b50610123610532565b6040516101309190610855565b60405180910390f35b34801561014557600080fd5b50610160600480360381019061015b91906108a1565b610568565b60405161016d919061090f565b60405180910390f35b34801561018257600080fd5b5061018b61059b565b60405161019891906109fa565b60405180910390f35b3480156101ad57600080fd5b506101b6610629565b6040516101c3919061090f565b60405180910390f35b3480156101d857600080fd5b506101e161064d565b6040516101ee9190610855565b60405180910390f35b34801561020357600080fd5b5061020c6106a1565b6040516102199190610855565b60405180910390f35b61022a6106a7565b005b34801561023857600080fd5b50610253600480360381019061024e91906108a1565b610756565b6040516102609190610a2b565b60405180910390f35b600047905090565b6000600180549050610281610532565b61028b9190610a75565b905090565b60008054906101000a900473ffffffffffffffffffffffffffffffffffffffff1673ffffffffffffffffffffffffffffffffffffffff163373ffffffffffffffffffffffffffffffffffffffff161461031e576040517f08c379a000000000000000000000000000000000000000000000000000000000815260040161031590610b03565b60405180910390fd5b600060018054905061032e61064d565b6103389190610a75565b90506001818154811061034e5761034d610b23565b5b9060005260206000200160009054906101000a900473ffffffffffffffffffffffffffffffffffffffff1660036000600254815260200190815260200160002060006101000a81548173ffffffffffffffffffffffffffffffffffffffff021916908373ffffffffffffffffffffffffffffffffffffffff160217905550600260008154809291906103df90610b81565b91905055506000600182815481106103fa576103f9610b23565b5b9060005260206000200160009054906101000a900473ffffffffffffffffffffffffffffffffffffffff1673ffffffffffffffffffffffffffffffffffffffff164760405161044890610bfa565b60006040518083038185875af1925050503d8060008114610485576040519150601f19603f3d011682016040523d82523d6000602084013e61048a565b606091505b50509050806104ce576040517f08c379a00000000000000000000000000000000000000000000000000000000081526004016104c590610c5b565b60405180910390fd5b600067ffffffffffffffff8111156104e9576104e8610c7b565b5b6040519080825280602002602001820160405280156105175781602001602082028036833780820191505090505b506001908051906020019061052d929190610795565b505050565b60004442600160405160200161054a93929190610de9565b6040516020818303038152906040528051906020012060001c905090565b60036020528060005260406000206000915054906101000a900473ffffffffffffffffffffffffffffffffffffffff1681565b6060600180548060200260200160405190810160405280929190818152602001828054801561061f57602002820191906000526020600020905b8160009054906101000a900473ffffffffffffffffffffffffffffffffffffffff1673ffffffffffffffffffffffffffffffffffffffff16815260200190600101908083116105d5575b5050505050905090565b60008054906101000a900473ffffffffffffffffffffffffffffffffffffffff1681565b60008060009054906101000a900473ffffffffffffffffffffffffffffffffffffffff1642604051602001610683929190610e6a565b6040516020818303038152906040528051906020012060001c905090565b60025481565b662386f26fc100003410156106f1576040517f08c379a00000000000000000000000000000000000000000000000000000000081526004016106e890610f08565b60405180910390fd5b6001339080600181540180825580915050600190039060005260206000200160009091909190916101000a81548173ffffffffffffffffffffffffffffffffffffffff021916908373ffffffffffffffffffffffffffffffffffffffff160217905550565b6001818154811061076657600080fd5b906000526020600020016000915054906101000a900473ffffffffffffffffffffffffffffffffffffffff1681565b82805482825590600052602060002090810192821561080e579160200282015b8281111561080d5782518260006101000a81548173ffffffffffffffffffffffffffffffffffffffff021916908373ffffffffffffffffffffffffffffffffffffffff160217905550916020019190600101906107b5565b5b50905061081b919061081f565b5090565b5b80821115610838576000816000905550600101610820565b5090565b6000819050919050565b61084f8161083c565b82525050565b600060208201905061086a6000830184610846565b92915050565b600080fd5b61087e8161083c565b811461088957600080fd5b50565b60008135905061089b81610875565b92915050565b6000602082840312156108b7576108b6610870565b5b60006108c58482850161088c565b91505092915050565b600073ffffffffffffffffffffffffffffffffffffffff82169050919050565b60006108f9826108ce565b9050919050565b610909816108ee565b82525050565b60006020820190506109246000830184610900565b92915050565b600081519050919050565b600082825260208201905092915050565b6000819050602082019050919050565b6000610961826108ce565b9050919050565b61097181610956565b82525050565b60006109838383610968565b60208301905092915050565b6000602082019050919050565b60006109a78261092a565b6109b18185610935565b93506109bc83610946565b8060005b838110156109ed5781516109d48882610977565b97506109df8361098f565b9250506001810190506109c0565b5085935050505092915050565b60006020820190508181036000830152610a14818461099c565b905092915050565b610a2581610956565b82525050565b6000602082019050610a406000830184610a1c565b92915050565b7f4e487b7100000000000000000000000000000000000000000000000000000000600052601260045260246000fd5b6000610a808261083c565b9150610a8b8361083c565b925082610a9b57610a9a610a46565b5b828206905092915050565b600082825260208201905092915050565b7f796f75277265206e6f7420746865206f776e6572000000000000000000000000600082015250565b6000610aed601483610aa6565b9150610af882610ab7565b602082019050919050565b60006020820190508181036000830152610b1c81610ae0565b9050919050565b7f4e487b7100000000000000000000000000000000000000000000000000000000600052603260045260246000fd5b7f4e487b7100000000000000000000000000000000000000000000000000000000600052601160045260246000fd5b6000610b8c8261083c565b91507fffffffffffffffffffffffffffffffffffffffffffffffffffffffffffffffff8203610bbe57610bbd610b52565b5b600182019050919050565b600081905092915050565b50565b6000610be4600083610bc9565b9150610bef82610bd4565b600082019050919050565b6000610c0582610bd7565b9150819050919050565b7f4661696c656420746f2073656e64204554480000000000000000000000000000600082015250565b6000610c45601283610aa6565b9150610c5082610c0f565b602082019050919050565b60006020820190508181036000830152610c7481610c38565b9050919050565b7f4e487b7100000000000000000000000000000000000000000000000000000000600052604160045260246000fd5b6000819050919050565b610cc5610cc08261083c565b610caa565b82525050565b600081549050919050565b600081905092915050565b60008190508160005260206000209050919050565b610cff81610956565b82525050565b6000610d118383610cf6565b60208301905092915050565b60008160001c9050919050565b600073ffffffffffffffffffffffffffffffffffffffff82169050919050565b6000610d5d610d5883610d1d565b610d2a565b9050919050565b6000610d708254610d4a565b9050919050565b6000600182019050919050565b6000610d8f82610ccb565b610d998185610cd6565b9350610da483610ce1565b8060005b83811015610ddc57610db982610d64565b610dc38882610d05565b9750610dce83610d77565b925050600181019050610da8565b5085935050505092915050565b6000610df58286610cb4565b602082019150610e058285610cb4565b602082019150610e158284610d84565b9150819050949350505050565b60008160601b9050919050565b6000610e3a82610e22565b9050919050565b6000610e4c82610e2f565b9050919050565b610e64610e5f826108ee565b610e41565b82525050565b6000610e768285610e53565b601482019150610e868284610cb4565b6020820191508190509392505050565b7f6d73672e76616c75652073686f756c642062652067726561746572207468616e60008201527f206f7220657175616c20746f20302e3031206574686572000000000000000000602082015250565b6000610ef2603783610aa6565b9150610efd82610e96565b604082019050919050565b60006020820190508181036000830152610f2181610ee5565b905091905056fea26469706673582212201d8da3976b3733717fab28f9334584b8701ad9dc616bba86496ff9dc027dcdda64736f6c63430008110033",
  "immutableReferences": {},
  "source": "// SPDX-License-Identifier: MIT\npragma solidity ^0.8.15;\n\ncontract Lottery {\n    address public owner;\n    address payable[] public players;\n    uint256 public lotteryId;\n    mapping(uint256 => address) public lotteryHistory;\n\n    constructor() {\n        owner = msg.sender;\n    }\n\n    function enter() public payable {\n        require(\n            msg.value >= .01 ether,\n            \"msg.value should be greater than or equal to 0.01 ether\"\n        );\n        players.push(payable(msg.sender));\n    }\n\n    function getBalance() public view returns (uint256) {\n        return address(this).balance;\n    }\n\n    function getPlayers() public view returns (address payable[] memory) {\n        return players;\n    }\n\n    function getRandomNumber() public view returns (uint256) {\n        return uint256(keccak256(abi.encodePacked(owner, block.timestamp)));\n    }\n\n    function getRandomNumberV2() public view returns (uint256) {\n        return\n            uint256(\n                keccak256(\n                    abi.encodePacked(block.difficulty, block.timestamp, players)\n                )\n            );\n    }\n\n    function getRandomNumberV3() public view returns (uint256) {\n        return getRandomNumberV2() % players.length;\n    }\n\n    function pickWinner() public onlyOnwer {\n        uint256 index = getRandomNumber() % players.length;\n        // uint256 index = getRandomNumberV2() % players.length;\n        // uint256 index = getRandomNumberV3() % players.length;\n\n        lotteryHistory[lotteryId] = players[index];\n        lotteryId++;\n\n        (bool success, ) = players[index].call{value: address(this).balance}(\n            \"\"\n        );\n        require(success, \"Failed to send ETH\");\n\n        players = new address payable[](0);\n    }\n\n    modifier onlyOnwer() {\n        require(msg.sender == owner, \"you're not the owner\");\n        _;\n    }\n}\n",
  "sourcePath": "/Users/calvin/Documents/skku/dev/Blockchain/FastCampus/Part5/GamblingDApp/Lottery-truffle/contracts/Lottery.sol",
  "compiler": {
    "name": "solc",
    "version": "0.8.17+commit.8df45f5f.Emscripten.clang"
  },
  "schemaVersion": "3.4.11",
  "updatedAt": "2023-02-09T09:19:29.593Z",
  "networkType": "ethereum",
  "devdoc": {
    "kind": "dev",
    "methods": {},
    "version": 1
  },
  "userdoc": {
    "kind": "user",
    "methods": {},
    "version": 1
  }
}